:10000000C2C00000DFC00000DDC00000DBC0000097
:10001000D9C00000D7C00000D5C00000D3C0000088
:10002000D1C00000CFC00000CDC00000CBC0000098
:10003000C9C00000C7C00000C5C00000C3C00000A8
:10004000C1C00000BFC00000BDC00000BBC00000B8
:10005000B9C00000B7C00000B5C00000B3C00000C8
:10006000B1C00000AFC00000ADC00000ABC00000D8
:10007000A9C00000A7C00000A5C00000A3C00000E8
:10008000A1C000009FC000009DC000009BC00000F8
:1000900099C0000097C0000095C00000A0C30000F8
:1000A00091C000008FC000008DC000008BC0000018
:1000B00089C0000087C0000085C0000083C0000028
:1000C00081C000007FC000007DC000007BC0000038
:1000D00079C0000077C0000075C0000073C0000048
:1000E00071C000000A045C045C045C045C045C04F1
:1000F0005C045C040A045C045C045C045C045C0452
:100100005C045C040C045C045C045C045C045C043F
:100110005C045C045C045C045C045C045C045C04DF
:100120005C045C040C045C045C045C045C045C041F
:100130005C045C045C045C045C045C045C045C04BF
:100140005C045C0458045C045C045C045C045C04B3
:100150005C045C0435045C045C045C045C045C04C6
:100160005C045C045C045C045C045C045C045C048F
:100170005C045C0429045C045C045C045C045C04B2
:100180005C045C04470411241FBECFEFD1E2DEBF44
:10019000CDBF00E00CBF12E0A0E0B2E0E4EDFDE076
:1001A00000E00BBF02C007900D92A633B107D9F74C
:1001B00022E0A6E3B2E001C01D92A534B207E1F748
:1001C00048D206C61DCFCF93C82F482F60EE8FE0D0
:1001D000CFD18EE0A9D1807E21E030E0C81302C0EB
:1001E00020E030E0C901CF910895CF93DF9352987A
:1001F00098D180E8E8DFEC01009731F08FE092E0E1
:10020000BAD5C1E0D0E00AC080E0DDDF4FEF64E6A0
:1002100080E6AED141E061E08BE2AAD1CE01DF9170
:10022000CF910895CF92DF92EF92FF920F931F9399
:10023000CF93DF93CDB7DEB72A970FB6F894DEBF22
:100240000FBECDBF0983C12E1A832B833C834D8300
:100250005E836F83788789879A8780E365D183FD82
:10026000FCCF602F66956695669581E36AD1602F15
:100270006295660F607E82E364D16C2D85E361D167
:10028000D12C1C141D048CF47E0183E0E80EF11CBB
:1002900000E010E0F70161917F0186E3800F51D10A
:1002A0000F5F1F4F0C151D05ACF381E859D12A963D
:1002B0000FB6F894DEBF0FBECDBFDF91CF911F9177
:1002C0000F91FF90EF90DF90CF9008959F92AF92A3
:1002D000BF92CF92DF92EF92FF920F931F93CF9333
:1002E000DF93CDB7DEB72A970FB6F894DEBF0FBE07
:1002F000CDBF6C014A99FECF8CE216D181FF2AC096
:1003000081E612D1182F82E60FD1829586958770EB
:10031000110F110F110F982E912A85E605D18F70BC
:10032000A82E99F08E010D5F1F4F7801E80EF11C89
:100330000F2EF6E6BF2EF02D8B2DF6D0F80181930F
:100340008F01B394EE15FF05B9F740E061E08CE250
:100350000FD102C099249A949982AA828AE0FE0160
:100360003196D60101900D928A95E1F7C6012A9641
:100370000FB6F894DEBF0FBECDBFDF91CF911F91B6
:100380000F91FF90EF90DF90CF90BF90AF909F9034
:100390000895ECE7F0E0808180648083EAE7F0E094
:1003A0008081806880838081846080830895F1DF0C
:1003B00010923702109236020895EAE7F0E0808149
:1003C00080648083808186FDFDCF8091780090914C
:1003D00079000895F2DF8397E0F42FEF84E39CE047
:1003E000215080409040E1F700C00000E6DF839795
:1003F00090F48091360281110EC0809137028F5F98
:100400008093370281E08093360286E292E0B3D493
:1004100002C010923602809137020895809337020D
:100420000895B1D178940895CF93DF9300D0CDB7DC
:10043000DEB780E589831A826B8363E0CE01019683
:10044000ACD10F900F900F90DF91CF9108950F9343
:100450001F93CF93DF93CDB7DEB72A970FB6F894EB
:10046000DEBF0FBECDBF4D83122F22231CF480E0D0
:10047000BCD002C081E0B9D0812F992787FD90952B
:1004800099231CF4919581959109BDD06D8170E0FF
:1004900080E090E051D320E030E04FE753E4B8D261
:1004A00020E030E040E85FE34BD225D12A960FB63A
:1004B000F894DEBF0FBECDBFDF91CF911F910F919A
:1004C00008950F931F93CF93DF93CDB7DEB72A978D
:1004D0000FB6F894DEBF0FBECDBF182F7BDF81179C
:1004E00018F081E0898302C082E08983098110E0ED
:1004F0002B813C814D815E816F81788589859A85CC
:1005000091DE2A960FB6F894DEBF0FBECDBFDF9105
:10051000CF911F910F91089532D180EC27D131C135
:1005200008951ED1F9CF0895CF93C82F28D183E025
:100530001DD18C2F1BD120D1C82F23D18C2FCF912F
:100540000895CF93DF93D82FC62F19D182E00ED113
:100550008D2F0CD18C2F0AD114D1DF91CF9108951A
:10056000CF93C82F0CD18C2F01D10BD1CF910895EF
:100570001F93CF93DF93182FD62FC42F00D185E080
:10058000F5D0812FF3D08D2FF1D08C2FEFD0F9D073
:10059000DF91CF911F91089544DFE1E0F1E0808188
:1005A000806180838081826080838081806280839B
:1005B00080818064808380818860808310920701BD
:1005C000E2E0F1E080818061808380818F7D8083A3
:1005D00080818F7B808387EE93E00197F1F700C0E5
:1005E00000008081806480830895811106C0E2E06C
:1005F000F1E080818D7F80830895E2E0F1E08081E9
:10060000826080830895883020F0682F80E00CCFCE
:10061000089560E080E008CF089581E0E6DF8BE494
:10062000F2DF2FEF8DE399E4215080409040E1F715
:1006300000C00000E2E0F1E080818F7B808387ECE6
:1006400090E00197F1F700C0000080818064808312
:100650000895CF93DF93CDB7DEB72A970FB6F894FE
:10066000DEBF0FBECDBF55D1C0DD1DD095DF9FDEF3
:10067000CE0101962BDE8981882319F0833029F081
:100680000FC0CBDF80E0CADE0BC009811A812B814D
:100690003C814D815E816F81788589859A85D7DE21
:1006A00085E00FDFE5CFA0EAB0E08C9182608C930B
:1006B000E1EAF0E0808188608083808180618083CE
:1006C0008C9180688C93808181608083808182603E
:1006D000808388E893E19093A7008093A600E1E0EF
:1006E000F1E080818860808387E791E09093A900A2
:1006F0008093A8000895CF92DF92EF92FF926B0152
:100700007C0126E636E646E050E4C8D218163CF4F2
:100710008DE092E09093A9008093A8001CC026E68B
:1007200036E646E65FE3C701B6016ED188233CF4A6
:1007300081EE90E09093A9008093A8000CC020E087
:1007400030E04AE753E4C701B601ACD2C9D1709397
:10075000A9006093A800FF90EF90DF90CF900895DC
:1007600087E884B9239881E58CBD08958EBD0DB4CA
:1007700007FEFDCF8EB5089580E0F8CF08952F983D
:1007800008952F9A08958CE08093B8008FEF80939E
:10079000BB0084E08093BC000895ECEBF0E0208186
:1007A00020FDFDCF60933A02FC01208120933B02A3
:1007B00020FD0CC0623050F0DC011196ECE3F2E059
:1007C00081E09D9191938F5F8613FBCF1092390248
:1007D00088EF8093000285EA8093BC0008951F9201
:1007E0000F920FB60F9211240BB60F922F933F93D7
:1007F0008F939F93AF93BF93EF93FF938091B90033
:1008000090E0FC013897E135F10508F055C0EE584D
:10081000FF4FABC210923802E091380280913A0249
:10082000E81770F481E08E0F80933802F0E0E55C09
:10083000FD4F80818093BB0085E88093BC0043C05E
:100840008091390281608093390284E98093BC00F1
:100850003AC0E091380281E08E0F80933802809197
:10086000BB00F0E0E55CFD4F80832091380230E072
:1008700080913A0290E001972817390724F485EC1B
:100880008093BC0020C085E88093BC001CC0809190
:10089000BB00E0913802F0E0E55CFD4F8083809181
:1008A000390281608093390284E98093BC000BC0D7
:1008B00085EA8093BC0007C08091B9008093000254
:1008C00084E08093BC00FF91EF91BF91AF919F9125
:1008D0008F913F912F910F900BBE0F900FBE0F90F5
:1008E0001F901895CF93C82F8A3011F48DE0FADF4E
:1008F000E0ECF0E0908195FFFDCFC093C600CF9172
:100900000895E0ECF0E080818823ECF78091C60048
:1009100008951092C50087E68093C40086E0809316
:10092000C20088E18093C10081E092E0909342028E
:10093000809341029093400280933F020895505863
:10094000BB27AA270ED070C161D130F066D120F04C
:1009500031F49F3F11F41EF456C10EF4E095E7FB0D
:100960004CC1E92F72D180F3BA176207730784076D
:10097000950718F071F49EF58AC10EF4E0950B2EE0
:10098000BA2FA02D0B01B90190010C01CA01A001E1
:100990001124FF27591B99F0593F50F4503E68F13C
:1009A0001A16F040A22F232F342F4427585FF3CF7D
:1009B000469537952795A795F0405395C9F77EF44E
:1009C0001F16BA0B620B730B840BBAF09150A1F097
:1009D000FF0FBB1F661F771F881FC2F70EC0BA0F1D
:1009E000621F731F841F48F4879577956795B795A5
:1009F000F7959E3F08F0B3CF9395880F08F099279D
:100A0000EE0F979587950895D4D008F481E0089566
:100A10000CD00AC102D140F0F9D030F021F45F3F90
:100A200019F0EBC0511134C1EEC00FD198F39923E6
:100A3000C9F35523B1F3951B550BBB27AA276217A2
:100A40007307840738F09F5F5F4F220F331F441FE7
:100A5000AA1FA9F333D00E2E3AF0E0E830D091501F
:100A60005040E695001CCAF729D0FE2F27D0660F0C
:100A7000771F881FBB1F261737074807AB07B0E84B
:100A800009F0BB0B802DBF01FF2793585F4F2AF061
:100A90009E3F510568F0B1C0FBC05F3FECF3983E4C
:100AA000DCF3869577956795B795F7959F5FC9F7BE
:100AB000880F911D9695879597F90895E1E0660F47
:100AC000771F881FBB1F621773078407BA0720F0C0
:100AD000621B730B840BBA0BEE1F88F7E095089529
:100AE000BCD088F09F5790F0B92F9927B751A0F04C
:100AF000D1F0660F771F881F991F1AF0BA95C9F7B2
:100B000012C0B13081F0C3D0B1E00895C0C0672FEA
:100B1000782F8827B85F39F0B93FCCF38695779561
:100B20006795B395D9F73EF490958095709561954A
:100B30007F4F8F4F9F4F0895E89409C097FB3EF475
:100B400090958095709561957F4F8F4F9F4F99231A
:100B5000A9F0F92F96E9BB279395F6958795779598
:100B60006795B795F111F8CFFAF4BB0F11F460FF58
:100B70001BC06F5F7F4F8F4F9F4F16C0882311F0B0
:100B800096E911C0772321F09EE8872F762F05C0C4
:100B9000662371F096E8862F70E060E02AF09A955F
:100BA000660F771F881FDAF7880F9695879597F954
:100BB0000895990F0008550FAA0BE0E8FEEF1616EE
:100BC0001706E807F907C0F012161306E407F50741
:100BD00098F0621B730B840B950B39F40A2661F0B5
:100BE000232B242B252B21F408950A2609F4A14058
:100BF000A6958FEF811D811D089597F99F6780E865
:100C000070E060E008959FEF80EC089500240A945E
:100C10001616170618060906089500240A941216D7
:100C20001306140605060895092E0394000C11F40A
:100C3000882352F0BB0F40F4BF2B11F460FF04C0B7
:100C40006F5F7F4F8F4F9F4F089557FD9058440F10
:100C5000551F59F05F3F71F04795880F97FB991F1B
:100C600061F09F3F79F087950895121613061406D8
:100C7000551FF2CF4695F1DF08C016161706180665
:100C8000991FF1CF86957105610508940895E89440
:100C9000BB2766277727CB0197F908958ADF08F4E9
:100CA0008FEF08950BD0C0CFB1DF28F0B6DF18F07A
:100CB000952309F0A2CFA7CF1124EACFC6DFA0F376
:100CC000959FD1F3950F50E0551F629FF001729FE1
:100CD000BB27F00DB11D639FAA27F00DB11DAA1F00
:100CE000649F6627B00DA11D661F829F2227B00D4D
:100CF000A11D621F739FB00DA11D621F839FA00DD8
:100D0000611D221F749F3327A00D611D231F849F27
:100D1000600D211D822F762F6A2F11249F5750407E
:100D20008AF0E1F088234AF0EE0FFF1FBB1F661F19
:100D3000771F881F91505040A9F79E3F510570F0D2
:100D40005CCFA6CF5F3FECF3983EDCF386957795BA
:100D50006795B795F795E7959F5FC1F7FE2B880FCD
:100D6000911D9695879597F90895EE0FFF1F0590B1
:100D7000F491E02D19940F931F93CF93DF93E0919B
:100D80004102F0914202238121FF1BC0EC0100E0EF
:100D900010E089916091410270914202DB01189646
:100DA000ED91FC911997882331F01995892B89F3DE
:100DB0000FEF1FEFEECF8AE01995892B11F4C801D0
:100DC00002C08FEF9FEFDF91CF911F910F91089598
:040DD000F894FFCFC5
:100DD400F800000003000000007204810400004DCC
:100DE400435032353135207265736574206661690C
:100DF4006C65642120004F6E65206C697665206CFB
:060E04006F737421200051
:00000001FF
