:10000000C2C00000DFC00000DDC00000DBC0000097
:10001000D9C00000D7C00000D5C00000D3C0000088
:10002000D1C00000CFC00000CDC00000CBC0000098
:10003000C9C00000C7C00000C5C00000C3C00000A8
:10004000C1C00000BFC00000BDC00000BBC00000B8
:10005000B9C00000B7C00000B5C00000B3C00000C8
:10006000B1C00000AFC00000ADC00000ABC00000D8
:10007000A9C00000A7C00000A5C00000A3C00000E8
:10008000A1C000009FC000009DC000009BC00000F8
:1000900099C0000097C0000095C0000066C2000033
:1000A00091C000008FC000008DC000008BC0000018
:1000B00089C0000087C0000085C0000083C0000028
:1000C00081C000007FC000007DC000007BC0000038
:1000D00079C0000077C0000075C0000073C0000048
:1000E00071C00000D0022203220322032203220354
:1000F00022032203D002220322032203220322032B
:1001000022032203D2022203220322032203220318
:1001100022032203220322032203220322032203B7
:1001200022032203D20222032203220322032203F8
:100130002203220322032203220322032203220397
:10014000220322031E03220322032203220322038B
:1001500022032203FB02220322032203220322039F
:100160002203220322032203220322032203220367
:1001700022032203EF02220322032203220322038B
:10018000220322030D0311241FBECFEFD1E2DEBFF5
:10019000CDBF00E00CBF12E0A0E0B2E0E4E3F7E086
:1001A00000E00BBF02C007900D92A632B107D9F74D
:1001B00022E0A6E2B2E001C01D92A533B207E1F74A
:1001C0006FD1B6C21DCFCF93C82F482F60EE8FE0FE
:1001D000CBD08EE0BCD0807E21E030E0C81302C0DE
:1001E00020E030E0C901CF910895CF93DF9352987A
:1001F000ABD080E8E8DFEC01009731F08FE092E0CF
:100200006AD2C1E0D0E00AC080E0DDDF4FEF64E6F3
:1002100080E6AAD041E061E08BE2A6D0CE01DF917A
:10022000CF9108959F92AF92BF92CF92DF92EF92BB
:10023000FF920F931F93CF93DF93CDB7DEB72A972B
:100240000FB6F894DEBF0FBECDBF6C014A99FECF4A
:100250008CE27DD081FF2AC081E679D0182F82E61A
:1002600076D0829586958770110F110F110F982EF9
:10027000912A85E66CD08F70A82E99F08E010D5FC3
:100280001F4F7801E80EF11C0F2EF6E6BF2EF02D61
:100290008B2D5DD0F80181938F01B394EE15FF058E
:1002A000B9F740E061E08CE25FD002C099249A94F3
:1002B0009982AA828AE0FE013196D60101900D92C0
:1002C0008A95E1F7C6012A960FB6F894DEBF0FBEF5
:1002D000CDBFDF91CF911F910F91FF90EF90DF90F5
:1002E000CF90BF90AF909F900895ECE7F0E08081B1
:1002F00080648083EAE7F0E0808180688083808189
:10030000846080830895F1DF109227021092260204
:100310000895FFD078940895CF93DF9300D0CDB7A0
:10032000DEB780E589831A826B8363E0CE01019694
:10033000FAD00F900F900F90DF91CF910895E5D0F4
:1003400080ECDAD0E4C00895D1D0F9CF0895CF93EE
:10035000C82FDBD083E0D0D08C2FCED0D3D0C82F05
:10036000D6D08C2FCF9108951F93CF93DF93182F62
:10037000D62FC42FCAD085E0BFD0812FBDD08D2FFE
:10038000BBD08C2FB9D0C3D0DF91CF911F910895EE
:10039000C0DFE1E0F1E08081806180838081826064
:1003A000808380818062808380818064808380817B
:1003B0008860808310920701E2E0F1E08081806133
:1003C000808380818F7D808380818F7B808387EE97
:1003D00093E00197F1F700C0000080818064808382
:1003E0000895811106C0E2E0F1E080818D7F808375
:1003F0000895E2E0F1E08081826080830895883092
:1004000020F0682F80E088CF089560E080E084CFFE
:10041000089581E0E6DF8BE4F2DF2FEF8DE399E4CE
:10042000215080409040E1F700C00000E2E0F1E0A0
:1004300080818F7B808387EC90E00197F1F700C08B
:1004400000008081806480830895E2E0F1E0808193
:100450008F7D808385E38A95F1F700008081877F17
:100460008083EFE8F1E03197F1F700C00000809160
:10047000060190E0982F8827E2E0F1E020812860D3
:100480002083EFE8F1E03197F1F700C00000209100
:100490000601E2E0F1E0308130623083822B089582
:1004A000CF93DF93CDB7DEB72A970FB6F894DEBFB0
:1004B0000FBECDBFF4D099DE6BDF25DFAADFCE0102
:1004C0000196B0DE1B8111231CF480E08ADF02C09C
:1004D00081E087DF812F992787FD909599231CF470
:1004E0009195819591098BDFB0DFE9CF87E884B9D9
:1004F000239881E58CBD08958EBD0DB407FEFDCF18
:100500008EB5089580E0F8CF08952F9808952F9A1A
:1005100008958CE08093B8008FEF8093BB0084E057
:100520008093BC000895ECEBF0E0208120FDFDCF2E
:1005300060932A02FC01208120932B0220FD0CC035
:10054000623050F0DC011196ECE2F2E081E09D9126
:1005500091938F5F8613FBCF1092290288EF8093CF
:10056000000285EA8093BC0008951F920F920FB697
:100570000F9211240BB60F922F933F938F939F935B
:10058000AF93BF93EF93FF938091B90090E0FC018C
:100590003897E135F10508F055C0EE58FF4F95C08A
:1005A00010922802E091280280912A02E81770F444
:1005B00081E08E0F80932802F0E0E55DFD4F8081A1
:1005C0008093BB0085E88093BC0043C080912902E2
:1005D00081608093290284E98093BC003AC0E09155
:1005E000280281E08E0F809328028091BB00F0E00A
:1005F000E55DFD4F80832091280230E080912A0242
:1006000090E001972817390724F485EC8093BC000B
:1006100020C085E88093BC001CC08091BB00E091A5
:100620002802F0E0E55DFD4F808380912902816022
:100630008093290284E98093BC000BC085EA8093F3
:10064000BC0007C08091B9008093000284E08093D1
:10065000BC00FF91EF91BF91AF919F918F913F911E
:100660002F910F900BBE0F900FBE0F901F901895FB
:10067000CF93C82F8A3011F48DE0FADFE0ECF0E080
:10068000908195FFFDCFC093C600CF910895E0EC17
:10069000F0E080818823ECF78091C60008951092E5
:1006A000C50087E68093C40086E08093C20088E19D
:1006B0008093C10081E092E09093320280933102F6
:1006C0009093300280932F020895EE0FFF1F059044
:1006D000F491E02D19940F931F93CF93DF93E09142
:1006E0003102F0913202238121FF1BC0EC0100E0B6
:1006F00010E089916091310270913202DB0118960D
:10070000ED91FC911997882331F01995892B89F384
:100710000FEF1FEFEECF8AE01995892B11F4C80176
:1007200002C08FEF9FEFDF91CF911F910F9108953E
:04073000F894FFCF6B
:10073400F800000003000000003803470300004DE8
:1007440043503235313520726573657420666169B2
:060754006C656421200029
:00000001FF
