:1000000071C000008EC000008CC000008AC00000DB
:1000100088C0000086C0000084C0000082C00000CC
:1000200080C000007EC000007CC000007AC00000DC
:1000300078C0000076C0000074C0000072C00000EC
:1000400070C000006EC000006CC000006AC00000FC
:1000500068C0000066C0000064C0000062C000000C
:1000600060C000005EC000005CC000005AC000001C
:1000700058C0000056C0000054C0000052C000002C
:1000800050C000004EC000004CC000004AC000003C
:1000900048C0000046C0000044C0000042C000004C
:1000A00040C000003EC000003CC000003AC000005C
:1000B00038C0000036C0000034C0000032C000006C
:1000C00030C000002EC000002CC000002AC000007C
:1000D00028C0000026C0000024C0000022C000008C
:1000E00020C0000011241FBECFEFD1E2DEBFCDBF84
:1000F00000E00CBF12E0A0E0B2E0E8EFF1E000E0C9
:100100000BBF02C007900D92AA32B107D9F722E0C7
:10011000AAE2B2E001C01D92A033B207E1F702D01B
:1001200069C06ECF24D08EE092E037D02FE986E808
:1001300091E0215080409040E1F700C00000F3CFF3
:10014000CF93C82F8A3011F48DE0FADFE0ECF0E0B5
:10015000908195FFFDCFC093C600CF910895E0EC4C
:10016000F0E080818823ECF78091C600089510921A
:10017000C50087E68093C40086E08093C20088E1D2
:100180008093C10080E092E090932D0280932C0236
:1001900090932B0280932A0208950F931F93CF937D
:1001A000DF93E0912C02F0912D02238121FF1BC0EF
:1001B000EC0100E010E0899160912C0270912D0219
:1001C000DB011896ED91FC911997882331F0199570
:1001D000892B89F30FEF1FEFEECF8AE01995892B5A
:1001E00011F4C80102C08FEF9FEFDF91CF911F91F3
:0801F0000F910895F894FFCF70
:1001F8000000000300000000A000AF0000006865D8
:100208006C6C6F2066726F6D20746865206F7468FF
:0A0218006572207369646520000020
:00000001FF
