S00D00006E6F6465322E737265633F
S113000071C000008EC000008CC000008AC00000D7
S113001088C0000086C0000084C0000082C00000C8
S113002080C000007EC000007CC000007AC00000D8
S113003078C0000076C0000074C0000072C00000E8
S113004070C000006EC000006CC000006AC00000F8
S113005068C0000066C0000064C0000062C0000008
S113006060C000005EC000005CC000005AC0000018
S113007058C0000056C0000054C0000052C0000028
S113008050C000004EC000004CC000004AC0000038
S113009048C0000046C0000044C0000042C0000048
S11300A040C000003EC000003CC000003AC0000058
S11300B038C0000036C0000034C0000032C0000068
S11300C030C000002EC000002CC000002AC0000078
S11300D028C0000026C0000024C0000022C0000088
S11300E020C0000011241FBECFEFD1E2DEBFCDBF80
S11300F000E00CBF12E0A0E0B2E0EAEAF8E000E0C1
S11301000BBF02C007900D92AE33B107D9F722E0BE
S1130110AEE3B2E001C01D92A434B207E1F7BDD052
S1130120C2C36ECFCF93C82F482F60EE8FE0A1D00B
S11301308EE092D0807E21E030E0C81302C020E03F
S113014030E0C901CF910895CF93DF93529881D0C5
S113015080E8E8DFEC01009731F08EE092E076D39E
S1130160C1E0D0E00AC080E0DDDF4FEF64E680E666
S113017080D041E061E08BE27CD0CE01DF91CF9171
S113018008959F92AF92BF92CF92DF92EF92FF9227
S11301900F931F93CF93DF93CDB7DEB72A970FB694
S11301A0F894DEBF0FBECDBF6C014A99FECF8CE23E
S11301B053D081FF2AC081E64FD0182F82E64CD05D
S11301C0829586958770110F110F110F982E912A21
S11301D085E642D08F70A82E99F08E010D5F1F4FD7
S11301E07801E80EF11C0F2EF6E6BF2EF02D8B2DB4
S11301F033D0F80181938F01B394EE15FF05B9F75D
S113020040E061E08CE235D002C099249A9499824E
S1130210AA828AE0FE013196D60101900D928A9558
S1130220E1F7C6012A960FB6F894DEBF0FBECDBF24
S1130230DF91CF911F910F91FF90EF90DF90CF90BE
S1130240BF90AF909F900895BAD080ECAFD0B9C062
S11302500895A6D0F9CF0895CF93C82FB0D083E0E6
S1130260A5D08C2FA3D0A8D0C82FABD08C2FCF91E2
S113027008951F93CF93DF93182FD62FC42F9FD0A9
S113028085E094D0812F92D08D2F90D08C2F8ED05A
S113029098D0DF91CF911F910895CF93DF93CDB77D
S11302A0DEB72A970FB6F894DEBF0FBECDBFA2D03B
S11302B04BDF19D085E292E0C9D2CE01019661DF0D
S11302C06C81772767FD7095872F972FA8D120E041
S11302D030E048E453E40DD120E030E040EC5FE34B
S11302E0A0D029D0E7CFA0EAB0E08C9182608C93B3
S11302F0E1EAF0E08081886080838081806180838E
S11303008C9180688C9380818160808380818260FD
S1130310808388E893E19093A7008093A600E1E0AE
S1130320F1E080818860808387E791E09093A90061
S11303308093A8000895CF92DF92EF92FF926B0111
S11303407C0126E636E646E050E419D218163CF461
S11303508DE092E09093A9008093A8001CC026E64B
S113036036E646E65FE3C701B601BFD088233CF416
S113037081EE90E09093A9008093A8000CC020E047
S113038030E04AE753E4C701B601FDD11AD17093B6
S1130390A9006093A800FF90EF90DF90CF9008959C
S11303A087E884B9239881E58CBD08958EBD0DB48A
S11303B007FEFDCF8EB5089580E0F8CF08952F98FD
S11303C008952F9A0895CF93C82F8A3011F48DE0A1
S11303D0FADFE0ECF0E0908195FFFDCFC093C6001A
S11303E0CF910895E0ECF0E080818823ECF78091D0
S11303F0C60008951092C50087E68093C40086E085
S11304008093C20088E18093C10080E092E09093E1
S113041041028093400290933F0280933E020895EC
S11304205058BB27AA270ED070C161D130F066D1D5
S113043020F031F49F3F11F41EF456C10EF4E09500
S1130440E7FB4CC1E92F72D180F3BA176207730737
S11304508407950718F071F49EF58AC10EF4E095AF
S11304600B2EBA2FA02D0B01B90190010C01CA016A
S1130470A0011124FF27591B99F0593F50F4503E15
S113048068F11A16F040A22F232F342F4427585F07
S1130490F3CF469537952795A795F0405395C9F71F
S11304A07EF41F16BA0B620B730B840BBAF09150D7
S11304B0A1F0FF0FBB1F661F771F881FC2F70EC076
S11304C0BA0F621F731F841F48F487957795679549
S11304D0B795F7959E3F08F0B3CF9395880F08F032
S11304E09927EE0F979587950895D4D008F481E065
S11304F008950CD00AC102D140F0F9D030F021F4B3
S11305005F3F19F0EBC0511134C1EEC00FD198F325
S11305109923C9F35523B1F3951B550BBB27AA2780
S113052062177307840738F09F5F5F4F220F331FF2
S1130530441FAA1FA9F333D00E2E3AF0E0E830D0BE
S113054091505040E695001CCAF729D0FE2F27D0C1
S1130550660F771F881FBB1F261737074807AB078F
S1130560B0E809F0BB0B802DBF01FF2793585F4F04
S11305702AF09E3F510568F0B1C0FBC05F3FECF329
S1130580983EDCF3869577956795B795F7959F5FC9
S1130590C9F7880F911D9695879597F90895E1E01D
S11305A0660F771F881FBB1F621773078407BA077C
S11305B020F0621B730B840BBA0BEE1F88F7E095D7
S11305C00895BCD088F09F5790F0B92F9927B75160
S11305D0A0F0D1F0660F771F881F991F1AF0BA9503
S11305E0C9F712C0B13081F0C3D0B1E00895C0C0E2
S11305F0672F782F8827B85F39F0B93FCCF38695F9
S113060077956795B395D9F73EF490958095709555
S113061061957F4F8F4F9F4F0895E89409C097FBD2
S11306203EF490958095709561957F4F8F4F9F4FC5
S11306309923A9F0F92F96E9BB279395F695879509
S113064077956795B795F111F8CFFAF4BB0F11F4CC
S113065060FF1BC06F5F7F4F8F4F9F4F16C0882373
S113066011F096E911C0772321F09EE8872F762FA9
S113067005C0662371F096E8862F70E060E02AF0EA
S11306809A95660F771F881FDAF7880F96958795D6
S113069097F90895990F0008550FAA0BE0E8FEEFAB
S11306A016161706E807F907C0F012161306E40732
S11306B0F50798F0621B730B840B950B39F40A262B
S11306C061F0232B242B252B21F408950A2609F409
S11306D0A140A6958FEF811D811D089597F99F670D
S11306E080E870E060E008959FEF80EC08950024B6
S11306F00A941616170618060906089500240A9483
S113070012161306140605060895092E0394000C08
S113071011F4882352F0BB0F40F4BF2B11F460FF97
S113072004C06F5F7F4F8F4F9F4F089557FD9058C0
S1130730440F551F59F05F3F71F04795880F97FBA1
S1130740991F61F09F3F79F087950895121613065B
S11307501406551FF2CF4695F1DF08C0161617068A
S11307601806991FF1CF86957105610508940895BF
S1130770E894BB2766277727CB0197F908958ADF8A
S113078008F48FEF08950BD0C0CFB1DF28F0B6DFA7
S113079018F0952309F0A2CFA7CF1124EACFC6DF22
S11307A0A0F3959FD1F3950F50E0551F629FF00180
S11307B0729FBB27F00DB11D639FAA27F00DB11DD9
S11307C0AA1F649F6627B00DA11D661F829F222762
S11307D0B00DA11D621F739FB00DA11D621F839FE9
S11307E0A00D611D221F749F3327A00D611D231FBF
S11307F0849F600D211D822F762F6A2F11249F570D
S113080050408AF0E1F088234AF0EE0FFF1FBB1F2F
S1130810661F771F881F91505040A9F79E3F5105CE
S113082070F05CCFA6CF5F3FECF3983EDCF3869587
S113083077956795B795F795E7959F5FC1F7FE2B79
S1130840880F911D9695879597F908950F931F9397
S1130850CF93DF93E0914002F0914102238121FF85
S11308601BC0EC0100E010E089916091400270919E
S11308704102DB011896ED91FC911997882331F020
S11308801995892B89F30FEF1FEFEECF8AE01995A5
S1130890892B11F4C80102C08FEF9FEFDF91CF9134
S10D08A01F910F910895F894FFCF03
S11308AA0000000300000000E301F20100004D43D0
S11308BA5032353135207265736574206661696C0E
S11308CA656421200057616974696E6720666F72D6
S11108DA206D6573736167652E2E2E2000005D
S9030000FC
