S00F00004279676765726E2E7372656347
S11300000C9438000C9455000C9455000C94550035
S11300100C9455000C9455000C9455000C94550008
S11300200C9455000C9455000C9455000C945500F8
S11300300C9455000C9455000C9455000C945500E8
S11300400C9455000C9455000C9455000C945500D8
S11300500C9455000C9455000C9455000C945500C8
S11300600C9455000C9455000C9455000C945500B8
S113007011241FBECFEFD4E0DEBFCDBF11E0A0E05E
S1130080B1E0EAE7F1E002C005900D92A030B107BB
S1130090D9F721E0A0E0B1E001C01D92A030B20781
S11300A0E1F70E9457000C94BB000C9400000E94DE
S11300B067000E94B1000E949B002FEF8FE797E03A
S11300C0215080409040E1F700C00000F4CF85B794
S11300D0806885BF80B7806280BFE0E0F0E18EEA8F
S11300E0808381EA80838AED808382E1808388EC47
S11300F0808388EA80838FE3808385ED808380E832
S1130100808381E8808380E5808389ED808381E238
S1130110808380E2808382E080838BED808380E330
S113012080838DEA8083108284EA808386EA8083D8
S11301308FEA80830895E0E0F2E188E180838083A0
S11301409EE790839CE390838083089580558093F9
S1130150001080E0E0E0F2E110828F5F8038E1F788
S11301600895CF93C0E08C2F0E94A600CF5FC830C3
S10D0170D1F7CF910895F894FFCF62
S9030000FC
