S00F00004279676765726E2E7372656347
S11300000C9438000C9455000C9455000C94550035
S11300100C9455000C9455000C9455000C94550008
S11300200C9455000C9455000C9455000C945500F8
S11300300C9455000C9455000C9455000C945500E8
S11300400C9455000C9455000C9455000C945500D8
S11300500C9455000C9455000C9455000C945500C8
S11300600C9455000C9455000C9455000C945500B8
S113007011241FBECFEFD4E0DEBFCDBF12E0A0E05D
S1130080B1E0E6E3F8E002C005900D92A631B107B5
S1130090D9F722E0A6E1B2E001C01D92AC31B2076B
S11300A0E1F70E94E8000C9419040C940000CF922C
S11300B0DF92EF92FF920F931F93CF93DF938EE023
S11300C091E00E943D0100E010E0C0E0D0E00F2E7E
S11300D0F5E2EF2EF1E0FF2EF02D8C2F8095FE013E
S11300E0F85E808390819817A9F090811F928F9376
S11300F01F929F93DF93CF93FF92EF920E94290167
S11301000F5F1F4F8DB79EB708960FB6F8949EBF2A
S11301100FBE8DBF2196C11598E0D907F1F6E12CE9
S1130120F12CC0E0D0E00F2EF5E6CF2EF1E0DF2E6B
S1130130F02D8C2F8095FE01F85E90818917B1F027
S113014090811F928F931F929F93DF93CF93DF929F
S1130150CF920E9429018FEFE81AF80A8DB79EB753
S113016008960FB6F8949EBF0FBE8DBF2196C11599
S113017098E0D907F1F6FF92EF921F930F9384EA68
S113018091E09F938F930E9429010F900F900F90FD
S11301900F900F900F90DF91CF911F910F91FF90CF
S11301A0EF90DF90CF90089585B7806885BF80B7C2
S11301B0806280BF3098089584608093001480E149
S11301C08A95F1F700C02899FECF80910014089514
S11301D00E94D4000E9417010E945700C4EFD1E08E
S11301E080E00E94DC001F928F93DF93CF930E94E4
S11301F029019FEF2FEF82E0915020408040E1F7EA
S113020000C000C00F900F900F900F90E9CFCF93D4
S1130210C82F8A3019F48DE00E9407015D9BFECF40
S1130220CCB9CF9108955F9BFECF8CB1089510BCDB
S11302308EE189B98EE880BD88E18AB980E091E0D9
S113024090931902809318029093170280931602D8
S11302500895A0E0B0E0EFE2F1E00C94F203FE01B7
S1130260359661917191AF018091180290911902B4
S11302700E946A01E2E00C940E040F931F93CF9343
S1130280DF93E0911802F0911902238121FF1BC032
S1130290EC0100E010E0899160911802709119025C
S11302A0DB011896ED91FC911997882331F009959B
S11302B0892B89F30FEF1FEFEECF8AE00995892B85
S11302C011F4C80102C08FEF9FEFDF91CF911F910E
S11302D00F910895ACE0B0E0E0E7F1E00C94E203A4
S11302E07C016B018A01FC0117821682838181FFE4
S11302F0BDC1CE0101964C01F7019381F60193FD36
S1130300859193FF81916F01882309F4ABC18532F4
S113031039F493FD859193FF81916F01853229F41E
S1130320B70190E00E945203E7CF512C312C20E01A
S11303302032A0F48B3269F030F4803259F08332E9
S113034069F420612CC08D3239F0803339F4216096
S113035026C02260246023C0286021C027FD27C056
S113036030ED380F3A3078F426FF06C0FAE05F9E8D
S1130370300D1124532E13C08AE0389E300D112401
S1130380332E20620CC08E3221F426FD6BC1206412
S113039006C08C3611F4206802C0883641F4F60198
S11303A093FD859193FF81916F018111C1CF982FA6
S11303B09F7D9554933028F40C5F1F4FFFE3F9831E
S11303C00DC0833631F0833771F0833509F05BC09B
S11303D022C0F801808189830E5F1F4F4424439417
S11303E0512C540115C03801F2E06F0E711CF80154
S11303F0A080B18026FF03C0652D70E002C06FEFBE
S11304007FEFC5012C870E9447032C0183012C85B3
S11304102F77222E17C03801F2E06F0E711CF801FD
S1130420A080B18026FF03C0652D70E002C06FEF8D
S11304307FEFC5012C870E943C032C012C8520688A
S1130440222E830123FC1BC0832D90E048165906FD
S1130450B0F4B70180E290E00E9452033A94F4CFE2
S1130460F50127FC859127FE81915F01B70190E09A
S11304700E94520331103A94F1E04F1A510841148A
S1130480510471F7E5C0843611F0893639F5F80165
S113049027FF07C060817181828193810C5F1F4FA8
S11304A008C060817181882777FD8095982F0E5F41
S11304B01F4F2F76B22E97FF09C0909580957095A7
S11304C061957F4F8F4F9F4F2068B22E2AE030E016
S11304D0A4010E948403A82EA81844C0853729F4D7
S11304E02F7EB22E2AE030E025C0F22FF97FBF2EF6
S11304F08F36C1F018F4883579F0B4C0803719F01C
S1130500883721F0AFC02F2F2061B22EB4FE0DC06A
S11305108B2D8460B82E09C024FF0AC09F2F9660DB
S1130520B92E06C028E030E005C020E130E002C06A
S113053020E132E0F801B7FE07C060817181828159
S113054093810C5F1F4F06C06081718180E090E051
S11305500E5F1F4FA4010E948403A82EA818FB2D30
S1130560FF77BF2EB6FE0BC02B2D2E7FA51450F4A3
S1130570B4FE0AC0B2FC08C02B2D2E7E05C07A2C16
S11305802B2D03C07A2C01C0752C24FF0DC0FE0155
S1130590EA0DF11D8081803311F4297E09C022FF08
S11305A006C07394739404C0822F867809F0739400
S11305B023FD13C020FF06C05A2C731418F4530CE7
S11305C05718732C731468F4B70180E290E02C87F9
S11305D00E94520373942C85F5CF731410F43718CA
S11305E001C0312C24FF12C0B70180E390E02C87B6
S11305F00E9452032C8522FF17C021FF03C088E507
S113060090E002C088E790E0B7010CC0822F8678A2
S113061059F021FD02C080E201C08BE227FD8DE28A
S1130620B70190E00E945203A51438F4B70180E3A7
S113063090E00E9452035A94F7CFAA94F401EA0D71
S1130640F11D8081B70190E00E945203A110F5CF03
S1130650332009F451CEB70180E290E00E945203A6
S11306603A94F6CFF7018681978102C08FEF9FEF0E
S11306702C96E2E10C94FE03FC010590615070405D
S11306800110D8F7809590958E0F9F1F0895FC0157
S11306906150704001900110D8F7809590958E0FAD
S11306A09F1F08950F931F93CF93DF93182F092F44
S11306B0EB018B8181FD03C08FEF9FEF20C082FF90
S11306C010C04E815F812C813D81421753077CF419
S11306D0E881F9819F012F5F3F4F3983288310837D
S11306E006C0E885F985812F0995892B29F72E8184
S11306F03F812F5F3F4F3F832E83812F902FDF91C8
S1130700CF911F910F910895FA01AA27283051F132
S1130710203181F1E8946F936E7F6E5F7F4F8F4F2E
S11307209F4FAF4FB1E03ED0B4E03CD0670F781F8D
S1130730891F9A1FA11D680F791F8A1F911DA11D72
S11307406A0F711D811D911DA11D20D009F46894AB
S11307503F912AE0269F11243019305D3193DEF653
S1130760CF010895462F4770405D4193B3E00FD009
S1130770C9F7F6CF462F4F70405D4A3318F0495DF4
S113078031FD4052419302D0A9F7EACFB4E0A695D7
S11307909795879577956795BA95C9F700976105F9
S11307A0710508959B01AC010A2E0694579547954F
S11307B037952795BA95C9F7620F731F841F951F44
S11307C0A01D08952F923F924F925F926F927F9255
S11307D08F929F92AF92BF92CF92DF92EF92FF924D
S11307E00F931F93CF93DF93CDB7DEB7CA1BDB0BF9
S11307F00FB6F894DEBF0FBECDBF09942A8839889E
S113080048885F846E847D848C849B84AA84B984A4
S1130810C884DF80EE80FD800C811B81AA81B981B0
S1130820CE0FD11D0FB6F894DEBF0FBECDBFED01C4
S10908300895F894FFCFC7
S113083600000003000000000701130100005374C8
S1130846617274696E67205352414D2074657374E6
S11308562E2E2E0D005352414D206572726F72205A
S1130866287772697465207068617365293A206512
S113087678745F72616D5B25645D203D202530329E
S113088658202873686F756C6420626520253032A1
S113089658290D0A005352414D206572726F722019
S11308A62872656164207068617365293A206578E9
S11308B6745F72616D5B25645D203D20253032587E
S11308C6202873686F756C64206265202530325861
S11308D6290D0A005352414D207465737420636FC9
S11308E66D706C657465642077697468202564206E
S11308F66572726F727320696E20777269746520EF
S1130906706861736520616E642025642065727267
S11309166F727320696E20726561642070686173FA
S1130926650D0A004A6F79737469636B2076616C8E
S113093675652069732063757272656E746C793A95
S1090946202564200A00D4
S9030000FC
