:100000000C9438000C9455000C9455000C94550039
:100010000C9455000C9455000C9455000C9455000C
:100020000C9455000C9455000C9455000C945500FC
:100030000C9455000C9455000C9455000C945500EC
:100040000C9455000C9455000C9455000C945500DC
:100050000C9455000C9455000C9455000C945500CC
:100060000C9455000C9455000C9455000C945500BC
:1000700011241FBECFEFD4E0DEBFCDBF12E0A0E061
:10008000B1E0EEE0FFE002C005900D92AE31B107A5
:10009000D9F722E0AEE1B2E001C01D92A632B2076C
:1000A000E1F70E9467000C9485070C94000085B767
:1000B000806885BF80B7806280BF30980895846073
:1000C000809300142899FECF809100140895CF9357
:1000D000DF93CDB7DEB72A970FB6F894DEBF0FBE19
:1000E000CDBF0E9457000E9494020E9407020E9406
:1000F000AE0081E089830E942B016894FF24F1F80F
:100100000E9436016B838C83FA828EE091E00E941C
:10011000A90409811A812B813C814D815E816F8107
:10012000788589859A850E94D10080E090EF0197BB
:10013000F1F7E6CFCF93C82F482F60EE8FE00E94F3
:10014000D7018EE00E94A601807E21E030E0C81336
:1001500002C020E030E0C901CF910895CF93DF9332
:100160008A980E94A10180E80E949A00EC01009701
:1001700039F081E291E00E94A904C1E0D0E00DC015
:1001800080E00E949A004FEF64E680E60E94D7016B
:1001900041E061E08BE20E94D701CE01DF91CF9177
:1001A0000895CF92DF92EF92FF920F931F93CF9318
:1001B000DF93CDB7DEB72A970FB6F894DEBF0FBE38
:1001C000CDBF0983C12E1A832B833C834D835E836D
:1001D0006F83788789879A8780E30E94A60183FDD1
:1001E000FBCF602F66956695669581E30E94B80106
:1001F000602F6295660F607E82E30E94B8016C2DCD
:1002000085E30E94B801D12C1C141D0494F47E01D6
:1002100083E0E80EF11C00E010E0F70161917F013E
:1002200086E3800F0E94B8010F5F1F4F0C151D055C
:10023000A4F381E80E94CC012A960FB6F894DEBFA1
:100240000FBECDBFDF91CF911F910F91FF90EF9027
:10025000DF90CF90089580E00E945F0080931F029E
:1002600081E00E945F0080931E0208958F929F920A
:10027000AF92BF92CF92DF92EF92FF9280E00E9406
:100280005F00682F70E080E090E00E94A4036B01A3
:100290007C0160911F0270E080E090E00E94A40366
:1002A0009B01AC01C701B6010E94A60220E030E02C
:1002B00041E053E40E940B0320E030E048EC52E4BC
:1002C0000E9432040E9473036B017C0181E00E9452
:1002D0005F00682F70E080E090E00E94A4034B0173
:1002E0005C0160911E0270E080E090E00E94A40337
:1002F0009B01AC01C501B4010E94A60220E030E0E0
:1003000041E053E40E940B0320E030E048EC52E46B
:100310000E9432040E9473034B015C01B601C401C8
:10032000FF90EF90DF90CF90BF90AF909F908F9015
:1003300008950E94030280EC0E94F8010E940502C9
:1003400008950E94F1010E9499010895CF93C82F4A
:100350000E94030283E00E94F8018C2F0E94F801A2
:100360000E94FC01C82F0E9405028C2FCF91089596
:10037000CF93DF93D82FC62F0E94030282E00E9402
:10038000F8018D2F0E94F8018C2F0E94F8010E9425
:100390000502DF91CF910895CF93C82F0E940302E9
:1003A0008C2F0E94F8010E940502CF9108951F939F
:1003B000CF93DF93182FD62FC42F0E94030285E01E
:1003C0000E94F801812F0E94F8018D2F0E94F801F0
:1003D0008C2F0E94F8010E940502DF91CF911F919E
:1003E0000895BD9ABF9ABC9ABE9881E58DB90895CB
:1003F0008FB9779BFECF089580E00E94F801779B2C
:10040000FECF8FB10895C4980895C49A0895CF92ED
:10041000DF92EF92FF920F931F93CF93DF9388E3C6
:1004200091E00E94A90400E010E0C0E0D0E00F2EAF
:10043000FFE4EF2EF1E0FF2EF02D8C2F8095FE01D2
:10044000F85E808390819817A9F090811F928F9316
:100450001F929F93DF93CF93FF92EF920E94950498
:100460000F5F1F4F8DB79EB708960FB6F8949EBFCB
:100470000FBE8DBF2196C11598E0D907F1F6E12C8A
:10048000F12CC0E0D0E00F2EFFE8CF2EF1E0DF2E00
:10049000F02D8C2F8095FE01F85E90818917B1F0C8
:1004A00090811F928F931F929F93DF93CF93DF9240
:1004B000CF920E9495048FEFE81AF80A8DB79EB785
:1004C00008960FB6F8949EBF0FBE8DBF2196C1153A
:1004D00098E0D907F1F6FF92EF921F930F938EECFD
:1004E00091E09F938F930E9495040F900F900F902F
:1004F0000F900F900F90DF91CF911F910F91FF9070
:10050000EF90DF90CF900895CF93C82F8A3019F4E1
:100510008DE00E9484025D9BFECFCCB9CF910895FF
:100520005F9BFECF8CB1089510BC8EE189B98EE837
:1005300080BD88E18AB980E091E0909323028093A6
:100540002202909321028093200208955058BB27E5
:10055000AA270ED04DC13ED130F043D120F031F466
:100560009F3F11F41EF433C10EF4E095E7FB29C15F
:10057000E92F4FD180F3BA176207730784079507F5
:1005800018F071F49EF567C10EF4E0950B2EBA2FAA
:10059000A02D0B01B90190010C01CA01A001112489
:1005A000FF27591B99F0593F50F4503E68F11A1635
:1005B000F040A22F232F342F4427585FF3CF4695C6
:1005C00037952795A795F0405395C9F77EF41F16E8
:1005D000BA0B620B730B840BBAF09150A1F0FF0FB2
:1005E000BB1F661F771F881FC2F70EC0BA0F621F9E
:1005F000731F841F48F4879577956795B795F7958E
:100600009E3F08F0B3CF9395880F08F09927EE0F1F
:100610009795879508950CD0EBC0E3D040F0DAD0E1
:1006200030F021F45F3F19F0CCC0511115C1CFC09B
:10063000F0D098F39923C9F35523B1F3951B550BCB
:10064000BB27AA2762177307840738F09F5F5F4FA5
:10065000220F331F441FAA1FA9F333D00E2E3AF0E6
:10066000E0E830D091505040E695001CCAF729D000
:10067000FE2F27D0660F771F881FBB1F261737074F
:100680004807AB07B0E809F0BB0B802DBF01FF277F
:1006900093585F4F2AF09E3F510568F092C0DCC02E
:1006A0005F3FECF3983EDCF3869577956795B795B9
:1006B000F7959F5FC9F7880F911D9695879597F9D4
:1006C0000895E1E0660F771F881FBB1F621773074D
:1006D0008407BA0720F0621B730B840BBA0BEE1F62
:1006E00088F7E095089504D06894B111B5C00895D5
:1006F00098D088F09F5790F0B92F9927B751A0F064
:10070000D1F0660F771F881F991F1AF0BA95C9F7A5
:1007100012C0B13081F09FD0B1E008959CC0672F26
:10072000782F8827B85F39F0B93FCCF38695779555
:100730006795B395D9F73EF490958095709561953E
:100740007F4F8F4F9F4F0895E89409C097FB3EF469
:1007500090958095709561957F4F8F4F9F4F99230E
:10076000A9F0F92F96E9BB279395F695879577958C
:100770006795B795F111F8CFFAF4BB0F11F460FF4C
:100780001BC06F5F7F4F8F4F9F4F16C0882311F0A4
:1007900096E911C0772321F09EE8872F762F05C0B8
:1007A000662371F096E8862F70E060E02AF09A9553
:1007B000660F771F881FDAF7880F9695879597F948
:1007C000089597F99F6780E870E060E008959FEFD3
:1007D00080EC089500240A941616170618060906D8
:1007E000089500240A9412161306140605060895A7
:1007F000092E0394000C11F4882352F0BB0F40F42F
:10080000BF2B11F460FF04C06F5F7F4F8F4F9F4F6E
:10081000089557FD9058440F551F59F05F3F71F0F0
:100820004795880F97FB991F61F09F3F79F0879557
:100830000895121613061406551FF2CF4695F1DFE0
:1008400008C0161617061806991FF1CF8695710570
:10085000610508940895E894BB2766277727CB01A4
:1008600097F908950BD0C4CFB5DF28F0BADF18F0A0
:10087000952309F0A6CFABCF1124EECFCADFA0F3AA
:10088000959FD1F3950F50E0551F629FF001729F25
:10089000BB27F00DB11D639FAA27F00DB11DAA1F44
:1008A000649F6627B00DA11D661F829F2227B00D91
:1008B000A11D621F739FB00DA11D621F839FA00D1C
:1008C000611D221F749F3327A00D611D231F849F6C
:1008D000600D211D822F762F6A2F11249F575040C3
:1008E0008AF0E1F088234AF0EE0FFF1FBB1F661F5E
:1008F000771F881F91505040A9F79E3F510570F017
:1009000060CFAACF5F3FECF3983EDCF386957795F6
:100910006795B795F795E7959F5FC1F7FE2B880F11
:10092000911D9695879597F90895A0E0B0E0EBE9C1
:10093000F4E00C945E07FE01359661917191AF0170
:1009400080912202909123020E94D604E2E00C944E
:100950007A070F931F93CF93DF93E0912202F091D8
:100960002302238121FF1BC0EC0100E010E08991EC
:100970006091220270912302DB011896ED91FC91A7
:100980001997882331F00995892B89F30FEF1FEF11
:10099000EECF8AE00995892B11F4C80102C08FEFD0
:1009A0009FEFDF91CF911F910F910895ACE0B0E0E0
:1009B000ECEDF4E00C944E077C016B018A01FC0124
:1009C00017821682838181FFBDC1CE0101964C0141
:1009D000F7019381F60193FD859193FF81916F015A
:1009E000882309F4ABC1853239F493FD859193FFD7
:1009F00081916F01853229F4B70190E00E94BE0613
:100A0000E7CF512C312C20E02032A0F48B3269F05A
:100A100030F4803259F0833269F420612CC08D3279
:100A200039F0803339F4216026C02260246023C06D
:100A3000286021C027FD27C030ED380F3A3078F408
:100A400026FF06C0FAE05F9E300D1124532E13C01E
:100A50008AE0389E300D1124332E20620CC08E3275
:100A600021F426FD6BC1206406C08C3611F4206889
:100A700002C0883641F4F60193FD859193FF819180
:100A80006F018111C1CF982F9F7D9554933028F429
:100A90000C5F1F4FFFE3F9830DC0833631F08337BE
:100AA00071F0833509F05BC022C0F8018081898331
:100AB0000E5F1F4F44244394512C540115C038013C
:100AC000F2E06F0E711CF801A080B18026FF03C018
:100AD000652D70E002C06FEF7FEFC5012C870E948B
:100AE000B3062C0183012C852F77222E17C03801E5
:100AF000F2E06F0E711CF801A080B18026FF03C0E8
:100B0000652D70E002C06FEF7FEFC5012C870E945A
:100B1000A8062C012C852068222E830123FC1BC0F3
:100B2000832D90E048165906B0F4B70180E290E0BA
:100B30000E94BE063A94F4CFF50127FC859127FE6A
:100B400081915F01B70190E00E94BE0631103A9496
:100B5000F1E04F1A51084114510471F7E5C0843691
:100B600011F0893639F5F80127FF07C060817181DE
:100B7000828193810C5F1F4F08C06081718188273B
:100B800077FD8095982F0E5F1F4F2F76B22E97FF1F
:100B900009C090958095709561957F4F8F4F9F4FBD
:100BA0002068B22E2AE030E0A4010E94F006A82EB0
:100BB000A81844C0853729F42F7EB22E2AE030E0F1
:100BC00025C0F22FF97FBF2E8F36C1F018F488357B
:100BD00079F0B4C0803719F0883721F0AFC02F2FDB
:100BE0002061B22EB4FE0DC08B2D8460B82E09C0DA
:100BF00024FF0AC09F2F9660B92E06C028E030E07F
:100C000005C020E130E002C020E132E0F801B7FE8B
:100C100007C060817181828193810C5F1F4F06C084
:100C20006081718180E090E00E5F1F4FA4010E94FF
:100C3000F006A82EA818FB2DFF77BF2EB6FE0BC01E
:100C40002B2D2E7FA51450F4B4FE0AC0B2FC08C0B0
:100C50002B2D2E7E05C07A2C2B2D03C07A2C01C0A3
:100C6000752C24FF0DC0FE01EA0DF11D808180333B
:100C700011F4297E09C022FF06C07394739404C046
:100C8000822F867809F0739423FD13C020FF06C0DD
:100C90005A2C731418F4530C5718732C731468F4EB
:100CA000B70180E290E02C870E94BE0673942C85E9
:100CB000F5CF731410F4371801C0312C24FF12C083
:100CC000B70180E390E02C870E94BE062C8522FFAE
:100CD00017C021FF03C088E590E002C088E790E0DC
:100CE000B7010CC0822F867859F021FD02C080E246
:100CF00001C08BE227FD8DE2B70190E00E94BE06A5
:100D0000A51438F4B70180E390E00E94BE065A941F
:100D1000F7CFAA94F401EA0DF11D8081B70190E0AC
:100D20000E94BE06A110F5CF332009F451CEB701C1
:100D300080E290E00E94BE063A94F6CFF7018681E9
:100D4000978102C08FEF9FEF2C96E2E10C946A0727
:100D5000FC010590615070400110D8F78095909586
:100D60008E0F9F1F0895FC0161507040019001108B
:100D7000D8F7809590958E0F9F1F08950F931F931E
:100D8000CF93DF93182F092FEB018B8181FD03C0D7
:100D90008FEF9FEF20C082FF10C04E815F812C81BA
:100DA0003D81421753077CF4E881F9819F012F5F51
:100DB0003F4F39832883108306C0E885F985812F4A
:100DC0000995892B29F72E813F812F5F3F4F3F8364
:100DD0002E83812F902FDF91CF911F910F91089536
:100DE000FA01AA27283051F1203181F1E8946F935C
:100DF0006E7F6E5F7F4F8F4F9F4FAF4FB1E03ED002
:100E0000B4E03CD0670F781F891F9A1FA11D680F9F
:100E1000791F8A1F911DA11D6A0F711D811D911DD2
:100E2000A11D20D009F468943F912AE0269F112447
:100E30003019305D3193DEF6CF010895462F4770AB
:100E4000405D4193B3E00FD0C9F7F6CF462F4F7006
:100E5000405D4A3318F0495D31FD4052419302D064
:100E6000A9F7EACFB4E0A69597958795779567950A
:100E7000BA95C9F700976105710508959B01AC010A
:100E80000A2E06945795479537952795BA95C9F731
:100E9000620F731F841F951FA01D08952F923F920C
:100EA0004F925F926F927F928F929F92AF92BF927A
:100EB000CF92DF92EF92FF920F931F93CF93DF9326
:100EC000CDB7DEB7CA1BDB0B0FB6F894DEBF0FBE83
:100ED000CDBF09942A88398848885F846E847D84D0
:100EE0008C849B84AA84B984C884DF80EE80FD80D2
:100EF0000C811B81AA81B981CE0FD11D0FB6F89448
:0E0F0000DEBF0FBECDBFED010895F894FFCF08
:100F0E000000000300000000840290020000536500
:100F1E006E64696E67206D6573736167652E2E2E24
:100F2E00004D43503235313520726573657420663D
:100F3E0061696C65642120005374617274696E6717
:100F4E00205352414D20746573742E2E2E0D005376
:100F5E0052414D206572726F7220287772697465E6
:100F6E00207068617365293A206578745F72616DCF
:100F7E005B25645D203D2025303258202873686F34
:100F8E00756C642062652025303258290D0A005395
:100F9E0052414D206572726F722028726561642015
:100FAE007068617365293A206578745F72616D5B54
:100FBE0025645D203D2025303258202873686F75DA
:100FCE006C642062652025303258290D0A00535278
:100FDE00414D207465737420636F6D706C6574651C
:100FEE00642077697468202564206572726F72734D
:100FFE0020696E2077726974652070686173652050
:10100E00616E64202564206572726F727320696E42
:0E101E0020726561642070686173650D0A00C0
:00000001FF
