S00D00006E6F6465312E7372656340
S11300000C9438000C9455000C9455000C94550035
S11300100C9455000C9455000C9455000C94550008
S11300200C9455000C9455000C9455000C945500F8
S11300300C9455000C9455000C9455000C945500E8
S11300400C9455000C9455000C9455000C945500D8
S11300500C9455000C9455000C9455000C945500C8
S11300600C9455000C9455000C9455000C945500B8
S113007011241FBECFEFD4E0DEBFCDBF12E0A0E05D
S1130080B1E0EAEAFBE002C005900D92AC31B107A1
S1130090D9F722E0ACE1B2E001C01D92A432B2076C
S11300A0E1F70E9467000C94D3050C94000085B717
S11300B0806885BF80B7806280BF3098089584606F
S11300C0809300142899FECF809100140895CF9353
S11300D0DF93CDB7DEB764970FB6F894DEBF0FBEDB
S11300E0CDBF0E9457000E94CA020E943D020E9496
S11300F0C4010E94DE0083E0898388E68B8385E661
S11301008C838CE68D838E838FE68F8385E08A8350
S11301100F2EFEE0CF2EF1E0DF2EF02D09811A81A3
S11301202B813C814D815E816F81788589859A859B
S11301300E940101CE010B960E945B01FC848B8519
S11301401F928F93DF92CF920E94DC020F900F9048
S11301500F900F90FF2081F08E01035F1F4FC801A5
S11301608F0D911D7C01F80181918F0190E00E9417
S1130170F0020E151F05B9F78AE090E00E94F00224
S1130180FFEF2FEF8EE0F15020408040E1F700C0F8
S11301900000C4CFCF93C82F482F60EE8FE00E9499
S11301A00D028EE00E94DC01807E21E030E0C81365
S11301B002C020E030E0C901CF910895CF93DF93CE
S11301C08A980E94D70180E80E94CA00EC01009737
S11301D039F08EE191E00E94F702C1E0D0E00DC059
S11301E080E40E94CA004FEF64E680E60E940D029C
S11301F041E061E08BE20E940D02CE01DF91CF91DC
S11302000895CF92DF92EF92FF920F931F93CF93B3
S1130210DF93CDB7DEB72A970FB6F894DEBF0FBED3
S1130220CDBF0983C12E1A832B833C834D835E8308
S11302306F83788789879A8780E30E94DC0183FD36
S1130240FBCF602F66956695669581E30E94EE016B
S1130250602F6295660F607E82E30E94EE016C2D32
S113026085E30E94EE01D12C1C141D0494F47E013C
S113027083E0E80EF11C00E010E0F70161917F01DA
S113028086E3800F0E94EE010F5F1F4F0C151D05C2
S1130290A4F381E80E9402022A960FB6F894DEBF06
S11302A00FBECDBFDF91CF911F910F91FF90EF90C3
S11302B0DF90CF9008959F92AF92BF92CF92DF923A
S11302C0EF92FF920F931F93CF93DF93CDB7DEB7D7
S11302D02A970FB6F894DEBF0FBECDBF6C0182998A
S11302E0FECF8CE20E94DC0181FF2FC081E60E94D8
S11302F0DC01182F82E60E94DC01829586958770C6
S1130300110F110F110F982E912A85E60E94DC011E
S11303108F70A82EA1F08E010D5F1F4F7801E80E9B
S1130320F11C0F2EF6E6BF2EF02D8B2D0E94DC0162
S1130330F80181938F01B394EE15FF05B1F740E006
S113034061E08CE20E940D0202C099249A94998281
S1130350AA828AE0FE013196D60101900D928A9517
S1130360E1F7C6012A960FB6F894DEBF0FBECDBFE3
S1130370DF91CF911F910F91FF90EF90DF90CF907D
S1130380BF90AF909F90089580E00E945F0080939B
S11303901D0281E00E945F0080931C0208950E9468
S11303A0390280EC0E942E020E943B0208950E94B2
S11303B027020E94CF010895CF93C82F0E943902CB
S11303C083E00E942E028C2F0E942E020E94320291
S11303D0C82F0E943B028C2FCF910895CF93DF93B7
S11303E0D82FC62F0E94390282E00E942E028D2F40
S11303F00E942E028C2F0E942E020E943B02DF914B
S1130400CF910895CF93C82F0E9439028C2F0E9458
S11304102E020E943B02CF9108951F93CF93DF9346
S1130420182FD62FC42F0E94390285E00E942E0275
S1130430812F0E942E028D2F0E942E028C2F0E944B
S11304402E020E943B02DF91CF911F910895BD9A25
S1130450BF9ABC9ABE9881E58DB908958FB9779BF0
S1130460FECF089580E00E942E02779BFECF8FB1CD
S11304700895C4980895C49A0895CF92DF92EF9294
S1130480FF920F931F93CF93DF9385E391E00E9434
S1130490F70200E010E0C0E0D0E00F2EFCE4EF2E05
S11304A0F1E0FF2EF02D8C2F8095FE01F85E808305
S11304B090819817A9F090811F928F931F929F9318
S11304C0DF93CF93FF92EF920E94DC020F5F1F4FE6
S11304D08DB79EB708960FB6F8949EBF0FBE8DBF1A
S11304E02196C11598E0D907F1F6E12CF12CC0E072
S11304F0D0E00F2EFCE8CF2EF1E0DF2EF02D8C2F74
S11305008095FE01F85E90818917B1F090811F9269
S11305108F931F929F93DF93CF93DF92CF920E948A
S1130520DC028FEFE81AF80A8DB79EB708960FB66B
S1130530F8949EBF0FBE8DBF2196C11598E0D907D0
S1130540F1F6FF92EF921F930F938BEC91E09F9340
S11305508F930E94DC020F900F900F900F900F90DA
S11305600F90DF91CF911F910F91FF90EF90DF904B
S1130570CF900895CF93C82F8A3019F48DE00E944C
S1130580BA025D9BFECFCCB9CF9108955F9BFECF9D
S11305908CB1089510BC8EE189B98EE880BD88E1E4
S11305A08AB980E091E09093210280932002909395
S11305B01F0280931E020895A0E0B0E0E2EEF2E094
S11305C00C94AC05FE01359661917191AF01809157
S11305D02002909121020E942403E2E00C94C805B9
S11305E060912002709121020E940C0508950F93DE
S11305F01F93CF93DF93E0912002F0912102238196
S113060021FF1BC0EC0100E010E089916091200201
S113061070912102DB011896ED91FC9119978823C2
S113062031F00995892B89F30FEF1FEFEECF8AE0A4
S11306300995892B11F4C80102C08FEF9FEFDF9158
S1130640CF911F910F910895ACE0B0E0EAE2F3E09E
S11306500C949C057C016B018A01FC0117821682B3
S1130660838181FFBDC1CE0101964C01F7019381C5
S1130670F60193FD859193FF81916F01882309F41D
S1130680ABC1853239F493FD859193FF81916F015C
S1130690853229F4B70190E00E940C05E7CF512C74
S11306A0312C20E02032A0F48B3269F030F4803217
S11306B059F0833269F420612CC08D3239F08033D3
S11306C039F4216026C02260246023C0286021C040
S11306D027FD27C030ED380F3A3078F426FF06C0E6
S11306E0FAE05F9E300D1124532E13C08AE0389E29
S11306F0300D1124332E20620CC08E3221F426FDDD
S11307006BC1206406C08C3611F4206802C08836A0
S113071041F4F60193FD859193FF81916F0181115D
S1130720C1CF982F9F7D9554933028F40C5F1F4FB1
S1130730FFE3F9830DC0833631F0833771F08335DD
S113074009F05BC022C0F801808189830E5F1F4FCE
S113075044244394512C540115C03801F2E06F0E27
S1130760711CF801A080B18026FF03C0652D70E0E4
S113077002C06FEF7FEFC5012C870E9401052C0199
S113078083012C852F77222E17C03801F2E06F0EDB
S1130790711CF801A080B18026FF03C0652D70E0B4
S11307A002C06FEF7FEFC5012C870E94F6042C0175
S11307B02C852068222E830123FC1BC0832D90E00E
S11307C048165906B0F4B70180E290E00E940C0587
S11307D03A94F4CFF50127FC859127FE81915F01BE
S11307E0B70190E00E940C0531103A94F1E04F1AE1
S11307F051084114510471F7E5C0843611F089366B
S113080039F5F80127FF07C06081718182819381E6
S11308100C5F1F4F08C060817181882777FD809528
S1130820982F0E5F1F4F2F76B22E97FF09C0909519
S11308308095709561957F4F8F4F9F4F2068B22EA2
S11308402AE030E0A4010E943E05A82EA81844C066
S1130850853729F42F7EB22E2AE030E025C0F22F0E
S1130860F97FBF2E8F36C1F018F4883579F0B4C003
S1130870803719F0883721F0AFC02F2F2061B22EB6
S1130880B4FE0DC08B2D8460B82E09C024FF0AC0AD
S11308909F2F9660B92E06C028E030E005C020E105
S11308A030E002C020E132E0F801B7FE07C0608109
S11308B07181828193810C5F1F4F06C060817181B9
S11308C080E090E00E5F1F4FA4010E943E05A82E19
S11308D0A818FB2DFF77BF2EB6FE0BC02B2D2E7F45
S11308E0A51450F4B4FE0AC0B2FC08C02B2D2E7E11
S11308F005C07A2C2B2D03C07A2C01C0752C24FF43
S11309000DC0FE01EA0DF11D8081803311F4297EB2
S113091009C022FF06C07394739404C0822F8678A2
S113092009F0739423FD13C020FF06C05A2C7314DE
S113093018F4530C5718732C731468F4B70180E23D
S113094090E02C870E940C0573942C85F5CF7314CA
S113095010F4371801C0312C24FF12C0B70180E312
S113096090E02C870E940C052C8522FF17C021FFE4
S113097003C088E590E002C088E790E0B7010CC0AE
S1130980822F867859F021FD02C080E201C08BE2FB
S113099027FD8DE2B70190E00E940C05A51438F400
S11309A0B70180E390E00E940C055A94F7CFAA9413
S11309B0F401EA0DF11D8081B70190E00E940C055D
S11309C0A110F5CF332009F451CEB70180E290E0B5
S11309D00E940C053A94F6CFF7018681978102C0F4
S11309E08FEF9FEF2C96E2E10C94B805FC01059083
S11309F0615070400110D8F7809590958E0F9F1F1D
S1130A000895FC016150704001900110D8F7809561
S1130A1090958E0F9F1F08950F931F93CF93DF938D
S1130A20182F092FEB018B8181FD03C08FEF9FEFFE
S1130A3020C082FF10C04E815F812C813D8142170E
S1130A4053077CF4E881F9819F012F5F3F4F39837D
S1130A502883108306C0E885F985812F0995892BA1
S1130A6029F72E813F812F5F3F4F3F832E83812FB4
S1130A70902FDF91CF911F910F910895FA01AA272A
S1130A80283051F1203181F1E8946F936E7F6E5FCD
S1130A907F4F8F4F9F4FAF4FB1E03ED0B4E03CD07B
S1130AA0670F781F891F9A1FA11D680F791F8A1F5E
S1130AB0911DA11D6A0F711D811D911DA11D20D0C5
S1130AC009F468943F912AE0269F11243019305D7F
S1130AD03193DEF6CF010895462F4770405D419370
S1130AE0B3E00FD0C9F7F6CF462F4F70405D4A33BD
S1130AF018F0495D31FD4052419302D0A9F7EACF85
S1130B00B4E0A6959795879577956795BA95C9F7B3
S1130B1000976105710508959B01AC010A2E0694A6
S1130B205795479537952795BA95C9F7620F731F5F
S1130B30841F951FA01D08952F923F924F925F929C
S1130B406F927F928F929F92AF92BF92CF92DF92D9
S1130B50EF92FF920F931F93CF93DF93CDB7DEB73E
S1130B60CA1BDB0B0FB6F894DEBF0FBECDBF0994D2
S1130B702A88398848885F846E847D848C849B8429
S1130B80AA84B984C884DF80EE80FD800C811B8137
S1130B90AA81B981CE0FD11D0FB6F894DEBF0FBE66
S10D0BA0CDBFED010895F894FFCFD6
S1130BAA0000000300000000BA02C60200004D65FE
S1130BBA73736167652049443A2025640A004D43EA
S1130BCA5032353135207265736574206661696CFB
S1130BDA65642120005374617274696E67205352EC
S1130BEA414D20746573742E2E2E0D005352414DBF
S1130BFA206572726F722028777269746520706832
S1130C0A617365293A206578745F72616D5B256446
S1130C1A5D203D2025303258202873686F756C6436
S1130C2A2062652025303258290D0A005352414D5D
S1130C3A206572726F72202872656164207068611F
S1130C4A7365293A206578745F72616D5B25645D0A
S1130C5A203D2025303258202873686F756C642033
S1130C6A62652025303258290D0A005352414D201D
S1130C7A7465737420636F6D706C65746564207732
S1130C8A697468202564206572726F727320696EB4
S1130C9A20777269746520706861736520616E6477
S1130CAA202564206572726F727320696E207265E2
S10F0CBA61642070686173650D0A00001D
S9030000FC
