S00D00006E6F6465312E7372656340
S11300000C9438000C9455000C9455000C94550035
S11300100C9455000C9455000C9455000C94550008
S11300200C9455000C9455000C9455000C945500F8
S11300300C9455000C9455000C9455000C945500E8
S11300400C9455000C9455000C9455000C945500D8
S11300500C9455000C9455000C9455000C945500C8
S11300600C9455000C9455000C9455000C945500B8
S113007011241FBECFEFD4E0DEBFCDBF12E0A0E05D
S1130080B1E0E6E0F1E102C005900D92A834B107B9
S1130090D9F722E0A8E4B2E001C01D92A035B2076E
S11300A0E1F70E947E020C9481080C94000085B74D
S11300B0806885BF80B7806280BF3098089584606F
S11300C0809300142899FECF84EA8A95F1F78091F1
S11300D000140895CF93C82F482F60EE8FE00E943C
S11300E064028EE00E943302807E21E030E0C81377
S11300F002C020E030E0C901CF910895CF93DF938F
S11301008A980E942E0280E80E946A00EC010097FF
S113011039F08EE091E00E94A505C1E0D0E00DC069
S113012080E00E946A004FEF64E680E60E94640269
S113013041E061E08BE20E946402CE01DF91CF9145
S11301400895CF92DF92EF92FF920F931F93CF9374
S1130150DF93CDB7DEB72A970FB6F894DEBF0FBE94
S1130160CDBF0983C12E1A832B833C834D835E83C9
S11301706F83788789879A8780E30E94330283FD9F
S1130180FBCF602F66956695669581E30E944502D4
S1130190602F6295660F607E82E30E9445026C2D9B
S11301A085E30E944502D12C1C141D0494F47E01A5
S11301B083E0E80EF11C00E010E0F70161917F019B
S11301C086E3800F0E9445020F5F1F4F0C151D052B
S11301D0A4F381E80E9459022A960FB6F894DEBF70
S11301E00FBECDBFDF91CF911F910F91FF90EF9084
S11301F0DF90CF9008959F92AF92BF92CF92DF92FB
S1130200EF92FF920F931F93CF93DF93CDB7DEB797
S11302102A970FB6F894DEBF0FBECDBF6C0182994A
S1130220FECF8CE20E94330281FF2FC081E60E9440
S11302303302182F82E60E943302829586958770D6
S1130240110F110F110F982E912A85E60E94330287
S11302508F70A82EA1F08E010D5F1F4F7801E80E5C
S1130260F11C0F2EF6E6BF2EF02D8B2D0E943302CB
S1130270F80181938F01B394EE15FF05B1F740E0C7
S113028061E08CE20E94640202C099249A949982EB
S1130290AA828AE0FE013196D60101900D928A95D8
S11302A0E1F7C6012A960FB6F894DEBF0FBECDBFA4
S11302B0DF91CF911F910F91FF90EF90DF90CF903E
S11302C0BF90AF909F9008950F931F93CF93DF93A8
S11302D0CDB7DEB72A970FB6F894DEBF0FBECDBFF9
S11302E00E94B40100E010E02B813C814D815E81CD
S11302F06F81788589859A850E94A1002A960FB618
S1130300F894DEBF0FBECDBFDF91CF911F910F9147
S113031008950F931F93CF93DF93CDB7DEB72A973A
S11303200FB6F894DEBF0FBECDBF0E94BF0193E0AD
S113033099836B838C830E942202098113E02B81B1
S11303403C81482F5E816F81788589859A850E94DA
S1130350A1002A960FB6F894DEBF0FBECDBFDF9181
S1130360CF911F910F91089580E00E945F008093C8
S1130370490281E00E945F008093480208958F92B1
S11303809F92AF92BF92CF92DF92EF92FF9280E062
S11303900E945F00682F70E080E090E00E94620499
S11303A06B017C016091490270E080E090E00E9462
S11303B062049B01AC01C701B6010E94640320E002
S11303C030E041E053E40E94C90320E030E048EC0F
S11303D052E40E94F0040E9431046B017C0181E02C
S11303E00E945F00682F70E080E090E00E94620449
S11303F04B015C016091480270E080E090E00E9453
S113040062049B01AC01C501B4010E94640320E0B5
S113041030E041E053E40E94C90320E030E048ECBE
S113042052E40E94F0040E9431044B015C01B601C5
S1130430C401FF90EF90DF90CF90BF90AF909F905A
S11304408F90089583E00E945F0008950E94C10286
S113045080EC0E94B6020E94C30208950E94AF027B
S11304600E9426020895CF93C82F0E94C10283E000
S11304700E94B6028C2F0E94B6020E94BA02C82FB4
S11304800E94C3028C2FCF910895CF93DF93D82F6E
S1130490C62F0E94C10282E00E94B6028D2F0E94E4
S11304A0B6028C2F0E94B6020E94C302DF91CF9144
S11304B00895CF93C82F0E94C1028C2F0E94B602C8
S11304C00E94C302CF9108951F93CF93DF93182FF7
S11304D0D62FC42F0E94C10285E00E94B602812F4C
S11304E00E94B6028D2F0E94B6028C2F0E94B60283
S11304F00E94C302DF91CF911F910895CF93DF93A0
S1130500CDB7DEB72A970FB6F894DEBF0FBECDBFC6
S11305100E9457000E9452030E94C5020E947E005E
S11305200AE412E085E291E00E94A505F8018081C9
S113053091810E9453050E9464010E94890180E018
S113054090EF0197F1F7CE0101960E94FB0089819B
S1130550813099F78BE491E00E94A505E3CFBD9A21
S1130560BF9ABC9ABE9881E58DB908958FB9779BDF
S1130570FECF089580E00E94B602779BFECF8FB134
S11305800895C4980895C49A0895CF92DF92EF9283
S1130590FF920F931F93CF93DF9381E691E00E9424
S11305A0A50500E010E0C0E0D0E00F2EF8E7EF2E44
S11305B0F1E0FF2EF02D8C2F8095FE01F85E8083F4
S11305C090819817A9F090811F928F931F929F9307
S11305D0DF93CF93FF92EF920E9491050F5F1F4F1D
S11305E08DB79EB708960FB6F8949EBF0FBE8DBF09
S11305F02196C11598E0D907F1F6E12CF12CC0E061
S1130600D0E00F2EF8EBCF2EF1E0DF2EF02D8C2F63
S11306108095FE01F85E90818917B1F090811F9258
S11306208F931F929F93DF93CF93DF92CF920E9479
S113063091058FEFE81AF80A8DB79EB708960FB6A2
S1130640F8949EBF0FBE8DBF2196C11598E0D907BF
S1130650F1F6FF92EF921F930F9387EF91E09F9330
S11306608F930E9491050F900F900F900F900F9011
S11306700F90DF91CF911F910F91FF90EF90DF903A
S1130680CF900895CF93C82F8A3019F48DE00E943B
S113069042035D9BFECFCCB9CF9108955F9BFECF03
S11306A08CB1089510BC8EE189B98EE880BD88E1D3
S11306B08AB980E091E090934D0280934C0290932C
S11306C04B0280934A0208955058BB27AA270ED0A4
S11306D04DC13ED130F043D120F031F49F3F11F4AD
S11306E01EF433C10EF4E095E7FB29C1E92F4FD185
S11306F080F3BA17620773078407950718F071F43B
S11307009EF567C10EF4E0950B2EBA2FA02D0B01B8
S1130710B90190010C01CA01A0011124FF27591B42
S113072099F0593F50F4503E68F11A16F040A22F48
S1130730232F342F4427585FF3CF469537952795B9
S1130740A795F0405395C9F77EF41F16BA0B620BB8
S1130750730B840BBAF09150A1F0FF0FBB1F661FFF
S1130760771F881FC2F70EC0BA0F621F731F841F42
S113077048F4879577956795B795F7959E3F08F068
S1130780B3CF9395880F08F09927EE0F9795879527
S113079008950CD0EBC0E3D040F0DAD030F021F46F
S11307A05F3F19F0CCC0511115C1CFC0F0D098F300
S11307B09923C9F35523B1F3951B550BBB27AA27DE
S11307C062177307840738F09F5F5F4F220F331F50
S11307D0441FAA1FA9F333D00E2E3AF0E0E830D01C
S11307E091505040E695001CCAF729D0FE2F27D01F
S11307F0660F771F881FBB1F261737074807AB07ED
S1130800B0E809F0BB0B802DBF01FF2793585F4F61
S11308102AF09E3F510568F092C0DCC05F3FECF3C4
S1130820983EDCF3869577956795B795F7959F5F26
S1130830C9F7880F911D9695879597F90895E1E07A
S1130840660F771F881FBB1F621773078407BA07D9
S113085020F0621B730B840BBA0BEE1F88F7E09534
S1130860089504D06894B111B5C0089598D088F063
S11308709F5790F0B92F9927B751A0F0D1F0660F88
S1130880771F881F991F1AF0BA95C9F712C0B130A3
S113089081F09FD0B1E008959CC0672F782F8827FE
S11308A0B85F39F0B93FCCF3869577956795B395E2
S11308B0D9F73EF490958095709561957F4F8F4F51
S11308C09F4F0895E89409C097FB3EF49095809556
S11308D0709561957F4F8F4F9F4F9923A9F0F92F02
S11308E096E9BB279395F695879577956795B79580
S11308F0F111F8CFFAF4BB0F11F460FF1BC06F5F66
S11309007F4F8F4F9F4F16C0882311F096E911C077
S1130910772321F09EE8872F762F05C0662371F098
S113092096E8862F70E060E02AF09A95660F771FAC
S1130930881FDAF7880F9695879597F9089597F9A0
S11309409F6780E870E060E008959FEF80EC089571
S113095000240A941616170618060906089500249A
S11309600A9412161306140605060895092E039414
S1130970000C11F4882352F0BB0F40F4BF2B11F488
S113098060FF04C06F5F7F4F8F4F9F4F089557FDE7
S11309909058440F551F59F05F3F71F04795880FE9
S11309A097FB991F61F09F3F79F087950895121680
S11309B013061406551FF2CF4695F1DF08C016162C
S11309C017061806991FF1CF8695710561050894DD
S11309D00895E894BB2766277727CB0197F90895F4
S11309E00BD0C4CFB5DF28F0BADF18F0952309F097
S11309F0A6CFABCF1124EECFCADFA0F3959FD1F3DE
S1130A00950F50E0551F629FF001729FBB27F00DB8
S1130A10B11D639FAA27F00DB11DAA1F649F66270D
S1130A20B00DA11D661F829F2227B00DA11D621F5C
S1130A30739FB00DA11D621F839FA00D611D221F16
S1130A40749F3327A00D611D231F849F600D211DFA
S1130A50822F762F6A2F11249F5750408AF0E1F09D
S1130A6088234AF0EE0FFF1FBB1F661F771F881FE6
S1130A7091505040A9F79E3F510570F060CFAACF26
S1130A805F3FECF3983EDCF3869577956795B795D1
S1130A90F795E7959F5FC1F7FE2B880F911D9695FB
S1130AA0879597F90895CF93DF93EC012B8120FF6D
S1130AB033C026FF0AC02F7B2B838E819F81019632
S1130AC09F838E838A8190E029C022FF0FC0E88132
S1130AD0F9818081992787FD9095009719F4206208
S1130AE02B831AC03196F983E8830EC0EA85FB850F
S1130AF0099597FF09C02B81019611F480E101C08B
S1130B0080E2822B8B8308C02E813F812F5F3F4F71
S1130B103F832E83992702C08FEF9FEFDF91CF9100
S1130B200895A0E0B0E0E7E9F5E00C945A08FE016E
S1130B30359661917191AF0180914C0290914D0273
S1130B400E94D205E2E00C9476080F931F93CF9392
S1130B50DF93E0914C02F0914D02238121FF1BC0F1
S1130B60EC0100E010E0899160914C0270914D021B
S1130B70DB011896ED91FC911997882331F00995C2
S1130B80892B89F30FEF1FEFEECF8AE00995892BAC
S1130B9011F4C80102C08FEF9FEFDF91CF911F9135
S1130BA00F910895ACE0B0E0E8EDF5E00C944A084C
S1130BB07C016B018A01FC0117821682838181FF0B
S1130BC0BDC1CE0101964C01F7019381F60193FD5D
S1130BD0859193FF81916F01882309F4ABC185321C
S1130BE039F493FD859193FF81916F01853229F446
S1130BF0B70190E00E94BA07E7CF512C312C20E0D6
S1130C002032A0F48B3269F030F4803259F0833210
S1130C1069F420612CC08D3239F0803339F42160BD
S1130C2026C02260246023C0286021C027FD27C07D
S1130C3030ED380F3A3078F426FF06C0FAE05F9EB4
S1130C40300D1124532E13C08AE0389E300D112428
S1130C50332E20620CC08E3221F426FD6BC1206439
S1130C6006C08C3611F4206802C0883641F4F601BF
S1130C7093FD859193FF81916F018111C1CF982FCD
S1130C809F7D9554933028F40C5F1F4FFFE3F98345
S1130C900DC0833631F0833771F0833509F05BC0C2
S1130CA022C0F801808189830E5F1F4F442443943E
S1130CB0512C540115C03801F2E06F0E711CF8017B
S1130CC0A080B18026FF03C0652D70E002C06FEFE5
S1130CD07FEFC5012C870E94AF072C0183012C856F
S1130CE02F77222E17C03801F2E06F0E711CF80125
S1130CF0A080B18026FF03C0652D70E002C06FEFB5
S1130D007FEFC5012C870E94A4072C012C85206845
S1130D10222E830123FC1BC0832D90E04816590624
S1130D20B0F4B70180E290E00E94BA073A94F4CF9D
S1130D30F50127FC859127FE81915F01B70190E0C1
S1130D400E94BA0731103A94F1E04F1A5108411445
S1130D50510471F7E5C0843611F0893639F5F8018C
S1130D6027FF07C060817181828193810C5F1F4FCF
S1130D7008C060817181882777FD8095982F0E5F68
S1130D801F4F2F76B22E97FF09C0909580957095CE
S1130D9061957F4F8F4F9F4F2068B22E2AE030E03D
S1130DA0A4010E94EC07A82EA81844C0853729F492
S1130DB02F7EB22E2AE030E025C0F22FF97FBF2E1D
S1130DC08F36C1F018F4883579F0B4C0803719F043
S1130DD0883721F0AFC02F2F2061B22EB4FE0DC092
S1130DE08B2D8460B82E09C024FF0AC09F2F966003
S1130DF0B92E06C028E030E005C020E130E002C092
S1130E0020E132E0F801B7FE07C060817181828180
S1130E1093810C5F1F4F06C06081718180E090E078
S1130E200E5F1F4FA4010E94EC07A82EA818FB2DEB
S1130E30FF77BF2EB6FE0BC02B2D2E7FA51450F4CA
S1130E40B4FE0AC0B2FC08C02B2D2E7E05C07A2C3D
S1130E502B2D03C07A2C01C0752C24FF0DC0FE017C
S1130E60EA0DF11D8081803311F4297E09C022FF2F
S1130E7006C07394739404C0822F867809F0739427
S1130E8023FD13C020FF06C05A2C731418F4530C0E
S1130E905718732C731468F4B70180E290E02C8720
S1130EA00E94BA0773942C85F5CF731410F4371885
S1130EB001C0312C24FF12C0B70180E390E02C87DD
S1130EC00E94BA072C8522FF17C021FF03C088E5C2
S1130ED090E002C088E790E0B7010CC0822F8678CA
S1130EE059F021FD02C080E201C08BE227FD8DE2B2
S1130EF0B70190E00E94BA07A51438F4B70180E363
S1130F0090E00E94BA075A94F7CFAA94F401EA0D2C
S1130F10F11D8081B70190E00E94BA07A110F5CFBE
S1130F20332009F451CEB70180E290E00E94BA0761
S1130F303A94F6CFF7018681978102C08FEF9FEF35
S1130F402C96E2E10C946608FC0105906150704017
S1130F500110D8F7809590958E0F9F1F0895FC017E
S1130F606150704001900110D8F7809590958E0FD4
S1130F709F1F08950F931F93CF93DF93182F092F6B
S1130F80EB018B8181FD03C08FEF9FEF20C082FFB7
S1130F9010C04E815F812C813D81421753077CF440
S1130FA0E881F9819F012F5F3F4F398328831083A4
S1130FB006C0E885F985812F0995892B29F72E81AB
S1130FC03F812F5F3F4F3F832E83812F902FDF91EF
S1130FD0CF911F910F910895FA01AA27283051F15A
S1130FE0203181F1E8946F936E7F6E5F7F4F8F4F56
S1130FF09F4FAF4FB1E03ED0B4E03CD0670F781FB5
S1131000891F9A1FA11D680F791F8A1F911DA11D99
S11310106A0F711D811D911DA11D20D009F46894D2
S11310203F912AE0269F11243019305D3193DEF67A
S1131030CF010895462F4770405D4193B3E00FD030
S1131040C9F7F6CF462F4F70405D4A3318F0495D1B
S113105031FD4052419302D0A9F7EACFB4E0A695FE
S11310609795879577956795BA95C9F70097610520
S1131070710508959B01AC010A2E06945795479576
S113108037952795BA95C9F7620F731F841F951F6B
S1131090A01D08952F923F924F925F926F927F927C
S11310A08F929F92AF92BF92CF92DF92EF92FF9274
S11310B00F931F93CF93DF93CDB7DEB7CA1BDB0B20
S11310C00FB6F894DEBF0FBECDBF09942A883988C5
S11310D048885F846E847D848C849B84AA84B984CC
S11310E0C884DF80EE80FD800C811B81AA81B981D8
S11310F0CE0FD11D0FB6F894DEBF0FBECDBFED01EC
S10911000895F894FFCFEE
S1131106000000030000000042034E0300004D43AC
S11311165032353135207265736574206661696CA9
S11311266564212000507265737320656E74657260
S1131136206B657920746F2061207374617274204A
S11311466E65772067616D65212000596F75206C87
S11311566F73742C2067616D65206F76657221202C
S1131166005374617274696E67205352414D207442
S11311766573742E2E2E0D005352414D20657272E6
S11311866F722028777269746520706861736529A7
S11311963A206578745F72616D5B25645D203D203D
S11311A625303258202873686F756C642062652078
S11311B625303258290D0A005352414D206572726A
S11311C66F72202872656164207068617365293ABC
S11311D6206578745F72616D5B25645D203D202512
S11311E6303258202873686F756C64206265202538
S11311F6303258290D0A005352414D2074657374D8
S113120620636F6D706C65746564207769746820FB
S11312162564206572726F727320696E2077726915
S1131226746520706861736520616E64202564208E
S11312366572726F727320696E20726561642070C4
S10B1246686173650D0A0000E4
S9030000FC
